:020000040800F2
:10000000A0040020E10100089B100008290F00084F
:1000100099100008ED0200084913000800000000D4
:100020000000000000000000000000009F10000819
:10003000EF020008000000009D100008A110000859
:10004000FB010008FB010008FB010008FB010008A0
:10005000FB010008FB010008FB010008FB01000890
:10006000FB010008FB010008FB010008FB01000880
:10007000FB010008FB010008FB010008FB01000870
:10008000FB010008FB010008FB0100080000000064
:10009000000000000000000000000000FB0100085C
:1000A000FB010008FB010008FB010008FB01000840
:1000B000000000000000000000000000FB0100083C
:1000C000FB010008FB010008FB010008FB01000820
:1000D000FB010008FB010008FB0100080000000014
:1000E000F1020008FB010008000000000000000011
:1000F000000000000000000000000000FB010008FC
:100100000000000000000000451100080000000091
:100110000000000000000000FB01000800000000DB
:10012000FB010008FB010008FB010008FB010008BF
:10013000FB010008000000000000000000000000BB
:1001400000000000000000000000000000000000AF
:10015000FB010008FB010008FB010008FB0100088F
:10016000000000000000000000000000000000008F
:10017000000000000000000000000000000000007F
:10018000FB010008FB010008000000000000000067
:1001900000000000FB01000800000000000000005B
:1001A000000000000000000000000000000000004F
:1001B000000000000000000000000000FB0100083B
:1001C000FB010008FB010008DFF810D000F07CF80C
:1001D00000480047D5140008AFF30080A0040020B9
:1001E0000648804706480047FEE7FEE7FEE7FEE7D1
:1001F000FEE7FEE7FEE7FEE7FEE7FEE7291100085F
:10020000C90100082DE9F05F0546002092469B4693
:1002100088460646814640241BE02846414647461C
:10022000224600F041F853465A46C01A914110D375
:1002300011461846224600F028F82D1A67EB0108EF
:100240004F4622460120002100F01FF817EB00095D
:100250004E41201EA4F10104DFDC484631462A4607
:100260004346BDE8F09FD2B201E000F8012B491EE1
:10027000FBD270470022F6E710B513460A46044643
:100280001946FFF7F0FF204610BD202A04DB203A74
:1002900000FA02F1002070479140C2F1200320FAD9
:1002A00003F3194390407047202A04DB203A21FAD7
:1002B00002F00021704721FA02F3D040C2F120027F
:1002C0009140084319467047064C074D06E0E06828
:1002D00040F0010394E8070098471034AC42F6D38D
:1002E000FFF776FF5016000870160008FEE770470B
:1002F0004FF4005000F014B870B5044600F0DAF87E
:100300000546601C02D004480078044400F0D2F88E
:10031000401BA042FAD370BD0800002070470000C7
:10032000044910B50A68024202D00860FFF7F6FFE0
:1003300010BD0000143C01402DE9F84F00224FF0A1
:10034000010803254FF00F0E0B6808FA02F4234052
:10035000A3426ED14E68012E05D0022E03D0112E7D
:1003600001D0122E12D186684FEA420C05FA0CF722
:10037000BE43CF6807FA0CF7374387604668A64349
:100380000C79C4F30014944034434460C6685700A9
:1003900005FA07FC8C6826EA0C06BC403443C460AE
:1003A0004C68022C01D0122C13D1D40800EB840429
:1003B000A346D4F8209054074FEAD46A0EFA0AF6FE
:1003C00029EA06090E6906FA0AF646EA0906CBF892
:1003D000206004680E7924EA0C0406F00306BE408F
:1003E000264306604C68E4004CD5294C266846F448
:1003F00080462660246822F0030604F480440094BA
:10040000244C3444A446D4F808489607370F0EFA13
:1004100007F6B443204EB04201D100260BE01F4E38
:10042000B04201D1012606E01D4EB04202D10226A3
:1004300001E027E00726BE402643CCF80868194EA5
:1004400034684F689C43FF0300D51C433460154E4D
:10045000361D34684F689C43BF0300D51C4334608D
:10046000104E083634684F689C43FF0200D51C4389
:1004700034600C4E0C3634684F689C43BF0200D584
:100480001C433460521C102AFFF45EAFBDE8F88FA5
:1004900044380240003001400000024000040240A5
:1004A00000080240003C01400AB181617047090424
:1004B000FBE700000148806870470000080000204A
:1004C000024881680278114481607047080000206A
:1004D0000B4810B5016841F400710160016841F4F6
:1004E00080610160016841F480710160032000F0C7
:1004F00071F8002000F006F800F024F8002010BD8C
:10050000003C024070B50D4D04464FF47A712878D6
:10051000B1FBF0F00A490968B1FBF0F000F0E8FA2D
:1005200048B9102C07D200222146501E00F032F8A4
:1005300000206C6070BD012070BD0000080000202C
:10054000140000200B4882B0016841F48041016032
:10055000006800F4804000900648001F016841F0E8
:1005600080510160006800F080500090072002B0C8
:1005700000F030B844380240002809DB00F01F02C8
:10058000012191404009800000F1E020C0F80011F5
:1005900070470000F0B40E4B1B680C46C3F30223F7
:1005A000C3F10705042D00D90425191D072901D21F
:1005B000002300E0DB1E012606FA05F1491E21405A
:1005C00099409E40761E16403143F0BC00F0C6BEF6
:1005D0000CED00E0064900F0070208684FF6FF0343
:1005E000184040EA0220034A1043086070470000A8
:1005F0000CED00E00000FA052DE9F0470E4605007D
:1006000065D0DFF81481D8F80000F7B200F00F00D1
:10061000B04207D288F80070D8F8000000F00F0050
:10062000B04254D128683D4C810712D5400703D50C
:10063000206840F4E05020602878000703D5206847
:1006400040F4604020602068A96820F0F000084372
:1006500020602878C0072DD0304968680839012803
:1006600012D0022813D0032811D009688907002965
:100670002DDA216821F0030101432160FFF71AFF01
:10068000814641F2883A0EE009688903EFE709687C
:100690008901ECE7FFF70EFFA0EB0901514502D9F4
:1006A0000320BDE8F0872068696800F00C00B0EB1B
:1006B000810FEFD1D8F80010404601F00F01B14290
:1006C00007D90770006800F00F00B04201D0012088
:1006D000E7E72878400705D52068E96820F4E0506E
:1006E000084320602878000706D52068296920F48F
:1006F000604040EAC100206000F038F82168084AF4
:10070000C1F30311515CC8400649086006480068FF
:10071000FFF7F8FE0020C4E7003C02400838024022
:1007200038160008140000200C0000200448054979
:1007300000680968044AC1F38221515CC8407047CF
:1007400014000020083802404816000804480549F3
:1007500000680968044AC1F34231515CC8407047DF
:10076000140000200838024048160008154810B54B
:10077000006810F00C02144813D04110042A0FD066
:10078000082A0ED10F4C241F2268236802F03F0272
:100790005B0207D52068C0F38810A0FB010106E0CA
:1007A000084610BD2168C1F38811A1FB0001002398
:1007B000FFF728FD2168C1F30141491C4900B0FB46
:1007C000F1F010BD083802400024F4002DE9F84F84
:1007D00005460078DFF800B3C04CC0074AD0DBF80C
:1007E00000105846C1F38101012908D00068C0F308
:1007F000810002280AD1201D0068400206D5206829
:10080000800337D56868002872D033E06868B0F597
:10081000803F10D0B0F5A02F206810D020F4803099
:100820002060206820F4802020606868A8B1FFF76D
:1008300041FE06460DE0206840F48030F4E740F4C5
:1008400080202060F7E700BFFFF734FE801B64289C
:100850006FD820688003F7D50CE0FFF72BFE064623
:1008600005E000BFFFF726FE801B6428F0D8206853
:100870008003F7D42878DFF8688280074FF00009FA
:1008800040D5DBF80010584611F00C0F09D0006875
:10089000C0F3810002280BD18F48001F006840027E
:1008A00006D42068800715D5E868012820D111E01A
:1008B000E868B8B10120C8F80000FFF7FBFD064664
:1008C00005E000BFFFF7F6FD801B0228C0D82068B6
:1008D0008007F7D52068296920F0F80040EAC100B8
:1008E00020600FE0C8F80090FFF7E4FD064606E040
:1008F000EFE000BFFFF7DEFD801B022819D820685B
:100900008007F7D42878000722D5734E75486969A7
:100910006C3679B101210160FFF7CCFD074604E098
:10092000FFF7C8FDC01B022803D830688007F7D541
:100930000EE089E0C0F80090FFF7BCFD074604E038
:10094000FFF7B8FDC01B02287ED830688007F7D4B7
:100950002878400768D5DFF880A100270AF1380A17
:10096000DAF80000C0000BD4DAF8001041F0805132
:10097000CAF80010DAF80000012700F0805000905B
:10098000594E3068C00510D4306840F48070306033
:10099000FFF790FD009005E0FFF78CFD0099401AED
:1009A000022851D83068C005F6D54B4EA868683685
:1009B00001280FD00528306810D020F001003060E9
:1009C000306820F004003060A868B8B1FFF772FD0D
:1009D00000900FE0306840F00100F4E740F00400C0
:1009E0003060F7E7FFF766FD0099411A41F2883061
:1009F000814266D830688007F4D50EE0FFF75AFDD3
:100A0000009007E0FFF756FD0099411A41F2883047
:100A1000814256D830688007F4D42FB1DAF800103C
:100A200021F08051CAF80010A869D0B3DBF800109B
:100A3000C1F3810102294CD00228484607D0C8F8EA
:100A40006000FFF737FD00E03BE005463CE047462D
:100A5000C8F86000FFF72EFD064604E0FFF72AFD08
:100A6000801B02282DD820688001F7D4F5E9070102
:100A70000843E9681D4A490802EB0141AA6841EAB6
:100A800082110843297C40EA0160297D40EA017116
:100A90001148001F016001203866FFF70BFD054675
:100AA00005E014E0FFF706FD401B022809D8206886
:100AB0008001F7D50BE000BFFFF7FCFC401B0228CC
:100AC00002D90320BDE8F88F20688001F4D400200B
:100AD000F8E70120F6E7000008380240003802403D
:100AE00000004742800E4742007000400000FFFFB8
:100AF00010B5401EB0F1807F01D3012010BD4FF032
:100B0000E02460610F21601700F028FC0020A06144
:100B100007202061002010BD7047704770B590F825
:100B20003C20012A23D0012480F83C40022280F896
:100B30003D2003685A689D6822F070060A683243B7
:100B40005A600C4B02689A4205D00B4B9A4202D075
:100B50000A4B9A4204D1496825F0800319439160F9
:100B600080F83D40002180F83C10084670BD02200E
:100B700070BD000000000140000C0040004001403A
:100B800010B5040003D094F83D0010B107E0012037
:100B900010BD002084F83C00204600F00DF8022033
:100BA00084F83D00211D206800F0D2FA012084F86D
:100BB0003D00002010BD000008B500680B498842C8
:100BC00012D10B48016841F0080101600068002261
:100BD00000F00800009011463220FFF7DBFCBDE872
:100BE00008403220FFF7C8BC08BD0000000C0040E0
:100BF00040380240022180F83D1001688A6802F006
:100C00000702062A03D00A6842F001020A600121A5
:100C100080F83D100020704770B5044690F83C0005
:100C2000012817D0012584F83C50022084F83D00AB
:100C30002068826822F0770222F47F42826008688E
:100C4000502830D00DDC20284DD005DC98B310287A
:100C50003BD148E0022070BD302844D0402834D138
:100C600039E0602828D0702806D0B0F5805F2CD0FD
:100C7000B0F5005F29D10AE0CB68D1E901212068F5
:100C800000F098FA2068816841F0770109E0CB68AC
:100C9000D1E90121206800F08DFA2068816841F4D3
:100CA0008041816011E0CA684968206800F094FAC8
:100CB0005021206807E016E0CA684968206800F003
:100CC0009CFA6021206800F07FFA84F83D500020F3
:100CD00084F83C0070BDCA684968206800F07CFA5E
:100CE00040212068EFE7226801461046EBE7704795
:100CF00070B50446006801694FF00005C9438907D3
:100D000015D4C168C943890711D4E91E01610120C6
:100D10002077206880698007204602D0FFF7E7FF30
:100D200004E000F098F8204600F096F82577206857
:100D30000169C943490717D4C168C943490713D496
:100D40006FF004010161022020772068806910F4AF
:100D5000407F204602D0FFF7CAFF04E000F07BF896
:100D6000204600F079F8257720680169C943090712
:100D700016D4C168C943090712D46FF00801016194
:100D8000042020772068C0698007204602D0FFF742
:100D9000AEFF04E000F05FF8204600F05DF8257734
:100DA00020680169C943C90617D4C168C943C90687
:100DB00013D46FF010010161082020772068C0690A
:100DC00010F4407F204602D0FFF791FF04E000F0CE
:100DD00042F8204600F040F8257720680169C943B1
:100DE000C90708D1C168C943C90704D1891E016177
:100DF000204600F032F820680169C943090609D489
:100E0000C168C943090605D46FF08001016120461D
:100E1000FFF782FE20680169C943490609D4C16809
:100E2000C943490605D46FF040010161204600F036
:100E300015F820680169C94389060BD4C168C94304
:100E4000890607D46FF0200101612046BDE870409B
:100E5000FFF763BE70BD704770477047704770B54D
:100E6000040004D094F83900002510B106E00120F8
:100E700070BD84F83850204600F022F8242084F811
:100E800039002068C16821F40051C160204600F09B
:100E9000C7F92068016921F4904101612068416926
:100EA00021F02A0141612068C16841F40051C1600C
:100EB000E563202084F8390084F83A00002070BDF2
:100EC00010B586B0044614216846FFF7D3F91349DC
:100ED0002068884220D112480021026842F4003282
:100EE0000260006800F4003005900D481038026878
:100EF00042F001020260006800F0010005900C2041
:100F000000900220CDE90101032003900720049006
:100F100069460448FFF710FA06B010BD00440040CF
:100F20004038024000000240FEE70000074909681F
:100F3000C9070AD0054980390968C90705D04FF0AB
:100F400060410A68002AFCD008707047800E00E0FB
:100F50002DE9F04387B014216846FFF78BF9344838
:100F60000024016841F004010160016801F00401FE
:100F70000591016841F080010160016801F0800184
:100F80000591016841F001010160016801F0010172
:100F90000591016841F0020101600068254F00F0F1
:100FA000020005900022E0213846FFF77DFADFF8C5
:100FB00088804FF48E66002231464046FFF774FA6F
:100FC000DFF87890002280214846FFF76DFA4FF451
:100FD000005000901A48CDE9010469464846FFF7E1
:100FE000ABF9E02000900125CDE90154694638466F
:100FF0000394FFF7A1F90096CDE9015469464046F4
:101000000394FFF799F980200090CDE901546946D7
:1010100048460394FFF790F9002211462820FFF775
:10102000B9FA2820FFF7A8FA07B0BDE8F08300005E
:101030003038024000000240000402400008024034
:101040000000211010B586B00024124800940194CD
:101050000294039404940E49059401604721C0E969
:1010600001144FF6FF71C0E903148461FFF788FD96
:101070004FF48050009069460648FFF7CDFD049478
:1010800004A904480594FFF749FD06B010BD00000F
:10109000000C00401C000020FEE7704770477047BE
:1010A000FFF70EBA30B593B034216846FFF7E2F887
:1010B00014210DA8FFF7DEF819480025016841F05A
:1010C00080510160006800F080501290154801685E
:1010D00041F4404101600068022400F44040129055
:1010E000012000904FF4A02001906005CDE906405A
:1010F00008AA0420482182E81300CDE90B046846C1
:10110000FFF764FB0DA90F2081E83100E002CDE973
:10111000100502210DA8FFF76FFA13B030BD0000D3
:1011200040380240007000400548016841F47001F9
:10113000016003494FF0006080390860704700008B
:1011400088ED00E00148FFF7D3BD00001C0000203F
:1011500030B50268134B144C984201D0A04203D121
:1011600022F070054A682A43984207D0A04205D071
:101170000E4CA04202D00E4CA04203D122F4407487
:10118000CA6822434C6922F08002224302608A68C6
:10119000C2620A688262984201D109690163012131
:1011A000416130BD00000140000C004000400140A2
:1011B0000048014010B5846842EA032224F47F44C9
:1011C0000A432243826010BD826822F070020A4303
:1011D00042F007018160704710B5036A046A24F089
:1011E00001040462846924F0F00444EA021423F048
:1011F0000A020A438461026210BD10B5036A23F03B
:10120000100303628369046A23F4704343EA0232E1
:1012100024F0A00343EA01118261016210BD0000C5
:101220002DE9F041044600680169E26821F440516B
:10123000114301612169A068E269084361691143B2
:1012400008432168CA6849F20C639A430243CA60A2
:1012500020684169A26921F4407111434161E0694C
:10126000192764253226B0F5004F354A35492068E4
:101270004FF0000806D0884201D0904236D1FFF7E7
:1012800065FA35E0884201D0904202D1FFF75EFA5C
:1012900001E0FFF74BFA61684A18A0FB070148EB31
:1012A0000803FEF7AFFF0146B0FBF5F00201B1FB0A
:1012B000F5F06FF01803584301EB800006EBC00017
:1012C000B0FBF5F000F0F80002EB4002B1FBF5F0E6
:1012D000584301EB800006EBC000B0FBF5F000F0D6
:1012E0000700216810448860BDE8F081FFF71EFA0E
:1012F00061688B0F8A00A0FB0701FEF783FF0146A0
:10130000B0FBF5F06FF01802504301EB800006EBE4
:101310000010B0FBF5F000F0F002B1FBF5F002EBCD
:101320000012B1FBF5F06FF01803584301EB800099
:1013300006EB0010B0FBF5F000F00F00D1E7000065
:101340000014014000100140FEE70000014A02497C
:1013500000F023B8D5130008180000200907090E73
:10136000002804DB00F1E02080F80014704700F052
:101370000F0000F1E02080F8141D704702E008C85B
:10138000121F08C1002AFAD170477047002001E0FF
:1013900001C1121F002AFBD170472DE9F04116460A
:1013A0000F460446002503E03946B047641C6D1C17
:1013B00020780028F8D12846BDE8F08104490022B1
:1013C0000B685A6209684A6A8242FCD3704700007F
:1013D0001C000020034A914201D1FFF7A7BD4FF046
:1013E000FF3070471800002010B5012000F04DF8C4
:1013F000BDE810400220FEF77FBF10B53220FEF797
:101400007BFF302000F041F80520FEF775FF30200B
:1014100000F03BF80120FEF76FFF302000F035F8B8
:101420000A20FEF769FF202000F02FF80A20FEF7BF
:1014300063FF282000F029F80120FEF75DFF082057
:1014400000F023F80120FEF757FF012000F01DF8FF
:101450000120FEF751FF0120FEF74EFF062000F0AD
:1014600014F80120FEF748FFBDE810400C2000F002
:101470000CB810B1012805D102E041F0800101E073
:1014800041F0C001C8B2AFF3008010B504460009B6
:10149000002100F097F804F00F00BDE81040002193
:1014A00000F090B810B504460009012100F08AF858
:1014B00004F00F00BDE81040012100F083B810B522
:1014C000044602E0641CFFF7EDFF20780028F9D104
:1014D00010BD00002CA4FEF7FBFFFFF7E3FDFFF7B4
:1014E00037FD2C492A48002608604FF4E130C1E955
:1014F00001060C20CE60C1E904608E610846CE6111
:10150000FFF7ADFCFFF79EFD22484038FFF772FB66
:1015100021A0FFF71BFF4FF47A70FEF7EDFEFFF7F7
:101520006CFF00210846FFF7A4FF1EA0FFF70EFF87
:101530002046FFF7C4FF1EA0FFF708FFFFF754FF88
:101540001D4C1EA0FFF702FF5FF00005D4E900016B
:10155000FFF78FFF05F13000C0B2FFF7A3FF60680F
:10156000401C60600F2803DD2068401CC4E90006B1
:101570002068012800DD2660FA20FEF7BDFE6D1C04
:10158000802DE3DBDDE7000068656C6C6F00000018
:10159000004400405C00002068656C6C6F6C636404
:1015A0000A00000068617961653564656D0A0000B4
:1015B0006279656C63640A00000000207768696CDA
:1015C000650A000070B50446CAB240211748FEF70C
:1015D0006BFFC4F3C00280211548FEF765FF154D6F
:1015E000C4F3800240212846FEF75EFFC4F34002A8
:1015F00020212846FEF758FF04F00102102128465A
:10160000FEF752FF0122940221462846FEF74CFFC6
:101610001420FFF7D3FE002221462846FEF744FFA0
:10162000BDE870401420FFF7C9BE00000000024072
:10163000000802400004024000000000000000001A
:101640000102030406070809000000000102030468
:1016500070160008000000201C0000007C13000829
:101660008C1600081C000020840400008C13000865
:101670000000000000000000010000001000000059
:0C168000000000000024F4000000000046
:04000005080001C925
:00000001FF
